:020000040000FA
:060000001FEF1FF01200CB
:0600080080EF1CF0120065
:0600180089EF1CF012004C
:060800001FEF1FF01200C3
:0608080080EF1CF012005D
:0608180089EF1CF0120044
:061000001FEF1FF01200BB
:0610080080EF1CF0120055
:0610180089EF1CF012003C
:1020000001000000000000000000000000000000CF
:092010000000000000003E3E004B
:10210000FF000000000000000000000000000000D0
:0A21100000000000000000000000C5
:10212000E8CFE5FFD8CFE5FFE0CFE5FFF3CFE5FF50
:10213000F4CFE5FFE9CFE5FFEACFE5FFFACFE5FF12
:10214000FBCFE5FFE4CFFBFFE4CFFAFFE4CFEAFFEC
:10215000E4CFE9FFE4CFF4FFE4CFF3FFE4CFE0FF07
:0A216000E4CFD8FFE4CFE8FF100041
:10300000E8CFE5FFD8CFE5FFE0CFE5FFF3CFE5FF61
:10301000F4CFE5FFE9CFE5FFEACFE5FFFACFE5FF23
:10302000FBCFE5FFE4CFFBFFE4CFFAFFE4CFEAFFFD
:10303000E4CFE9FFE4CFF4FFE4CFF3FFE4CFE0FF18
:0A304000E4CFD8FFE4CFE8FF100052
:0A3800000001020EA06F939E12005B
:04382000819E120073
:04384000818E120063
:10390000DACFE4FFE2CFDAFFE652E552E5CFDAFFA5
:103910001100D8CFE4FFE0CFE4FFE46EDACFE4FF9C
:10392000E2CFDAFFE652E552E5CFDAFFE550E5CF28
:10393000E0FFE5CFD8FF1000F29E550EA76EAA0E4D
:10394000A76EA682A6B2FED7A6941200A1C0F6FF6B
:10395000A2C0F7FFA3C0F8FF0400940EA66EECDF30
:103960001200A1C0F6FFA2C0F7FFA3C0F8FFE00E4F
:10397000F6160001A76B200E0001A75D0DE2000105
:10398000A751EA6A600FE96E000EEA22EF50F56E69
:103990000D000001A72BEFD70A000400A40EA66EAD
:1039A000CBDFA1C0F6FFA2C0F7FFA3C0F8FF200E37
:1039B000F626000EF722000EF8220001200EA76F57
:1039C000400E0001A75D0DE20001A751EA6A600FF9
:1039D000E96E000EEA22EF50F56E0D000001A72BF4
:1039E000EFD70A000400A40EA66EA6DF1200A4C042
:1039F000F6FFA5C0F7FFA6C0F8FF0001A86B400EB8
:103A00000001A85D0DE209000001A851EA6A600FFB
:103A1000E96E000EEA22F5CFEFFF0001A82BEFD7E9
:103A20001200F29E00EC1CF010EC1CF00001A05102
:103A3000106E116A086A010E096E10C00DF011C0F7
:103A40000EF0BCEC1EF00850E66EE2EC1EF0E55203
:103A50000001A051106E116A086A010E096E10C0B3
:103A60000DF011C00EF0BCEC1EF00850E66EE2EC5A
:103A70001EF0E5520001A051106E116A086A010E95
:103A8000096E10C00DF011C00EF0BCEC1EF0085015
:103A9000E66EE2EC1EF0E5520001A051106E116AD4
:103AA000086A010E096E10C00DF011C00EF0BCECDA
:103AB0001EF00850E66EE2EC1EF0E5520001A05147
:103AC000106E116A086A010E096E10C00DF011C067
:103AD0000EF0BCEC1EF00850E66EE2EC1EF0E55273
:103AE0000001A96B0001A951080DF3CFF6FFF4CF37
:103AF000F7FF000EF6263F0EF7220900F5CFAAF0D9
:103B00000A00F5CFABF00001AA51AB1101E172D070
:103B10000001A951080DF3CFF6FFF4CFF7FF000E17
:103B2000F6263F0EF722020EF626000EF7220900B7
:103B3000F5CFA4F00900F5CFA5F00800F5CFA6F069
:103B40000001A951080DF3CFF6FFF4CFF7FF000EE7
:103B5000F6263F0EF722050EF626000EF722090084
:103B6000F5CFA1F00900F5CFA2F00800F5CFA3F042
:103B70000001000ED880AA55000EAB5538E220ECAB
:103B80001CF0600E106EA0C00EF010C009F02DECFD
:103B90001FF00950E66EE2EC1EF0E552D7DE27DF9B
:103BA000E0DE10EC1CF0300E106EA0C00EF010C065
:103BB00009F02DEC1FF00950E66EE2EC1EF0E55224
:103BC000400E0001A427000E0001A523000E0001F5
:103BD000A623400E0001A127000E0001A223000E23
:103BE0000001A3230001AA07000EAB5BC1D70001AF
:103BF000A92B78D710EC1CF00001A051106E116AAF
:103C0000086A010E096E10C00DF011C00EF0BCEC78
:103C10001EF00850E66EE2EC1EF0E5520001A051E5
:103C2000106E116A086A010E096E10C00DF011C005
:103C30000EF0BCEC1EF00850E66EE2EC1EF0E55211
:103C40000001A051106E116A086A010E096E10C0C1
:103C50000DF011C00EF0BCEC1EF00850E66EE2EC68
:103C60001EF0E5520001A051106E116A086A010EA3
:103C7000096E10C00DF011C00EF0BCEC1EF0085023
:103C8000E66EE2EC1EF0E5520001A051106E116AE2
:103C9000086A010E096E10C00DF011C00EF0BCECE8
:103CA0001EF00850E66EE2EC1EF0E5520001A05155
:103CB000106E116A086A010E096E10C00DF011C075
:103CC0000EF0BCEC1EF00850E66EE2EC1EF0E55281
:083CD00020EC1CF0FF001200C3
:023CD8000000EA
:063CDA00D80EF66E3C0E50
:103CE000F76E000EF86E00010900F550B16F090083
:103CF000F550B26F03E1B16701D03DD00900F55036
:103D0000AC6F0900F550AD6F0900F550AE6F0900BA
:103D10000900F550E96E0900F550EA6E0900090046
:103D20000900F550AF6F0900F550B06F09000900A8
:103D3000F6CFB3F0F7CFB4F0F8CFB5F0ACC0F6FFE4
:103D4000ADC0F7FFAEC0F8FF0001AF5302E1B053C2
:103D500007E00900F550EE6EAF07F8E2B007F9D7BB
:103D6000B3C0F6FFB4C0F7FFB5C0F8FF0001B1075C
:083D7000000EB25BBFD7120088
:083D7800006A0EAEC5EF1EF05B
:103D80000D6C0E1EE86A0E22001E09AECDEF1EF06D
:103D9000086C091EE86A0922001EF9EC1EF009BE33
:103DA000DDEF1EF000AE000C086C091EE86A092267
:103DB000046C051EE86A0522000C00BED4EF1EF05C
:043DC0000188FF0C6B
:0C3DC400FF0EE350136EEF0E01D0F30E63
:103DD000E76EE72EE9EF1EF00C0E126EE76AE72E93
:103DE000EFEF1EF0122EEEEF1EF0132EE7EF1EF097
:023DF0001200BF
:0E3DF200056A046A100EE76ED890083609368E
:103E0000043605360D50045C0E50055805E30D5080
:0E3E1000045E0E50055A082AE72EF0D7120065
:023E1E00000E94
:103E2000F36E00EE00F0040E01D81200EA6002D03A
:0E3E3000EE6AFCD7F350E9601200EE6AFCD790
:023E3E0013EE81
:103E400000F023EE00F0F86A019C6DEC1EF03BECF4
:0A3E50001FF011EC1DF0FBD712006B
:063E5A00056A080EE76E88
:103E6000D890093605360E50055C02E3056E092A26
:063E7000E72EF7D7120057
:023E7600120038
:083F00008000004000000000F9
:083F080004000021000020006C
:083F1000040000300000400035
:083F18000000000000000000A1
:0440000037EF0CF09A
:0440080010EF10F0B5
:0840180000EF20F010003DEF65
:1040200000F088EF09F051EF0CF07BEF07F094EF10
:104030000BF050EF04F06EEF08F01FEF0CF07CEF88
:1040400006F04BEF0CF002EF0AF072EF05F055EFBF
:104050000AF0F1EF0BF0CAEF0BF0AFEF0BF074EFDB
:104060000BF041EF0CF02BEF0CF011EF0CF0F9EF2F
:1040700002F012EF03F0EDEF02F000C0E5FF01C027
:10408000E5FF02C0E5FF03C0E5FF04C0E5FF69A44A
:1040900005D068A403D06D926994689469A003D098
:1040A00068B088EC09F069A805D068A803D06984D5
:1040B00068986D8269AA42D068AA40D0006A70B040
:1040C000002A0050010A39E15E50030DF3CF00F0E1
:1040D000F4CF01F000018451002685510122865160
:1040E000026A022200C0E9FF01C0F3FF0250AFECF8
:1040F0000BF0006EF3CF01F0F4CF02F000C0E9FF47
:1041000001C0F3FF0250AFEC0BF0006EF3CF01F0F3
:10411000F4CF02F0F2CFE5FFF29E0500380EFD6EFF
:10412000010EFE6E000EFF6EE450F26E02C0FBFF49
:1041300001C0FAFF0050F96E7090689A030E5F5C40
:10414000D8A015D169A613D168A611D16CB4B9D085
:104150006C50E838E8440F0B006E0024040DF3CFD8
:1041600000F0000E0026040E016A00BE0168012264
:1041700000C0E9FF01C0EAFFEF50E840E8400F0B44
:104180000D0A01E04FD05E50030DF3CF00F0F4CFE5
:1041900001F0000187510026885101228951026AED
:1041A000022200C0E9FF01C0F3FF0250AFEC0BF0A8
:1041B000006EF3CF01F0F4CF02F06C50E838E84421
:1041C0000F0BE56AE56EE56A030EE56E55EC0AF045
:1041D000036EF3CF04F0040EE126035000260450D2
:1041E0000122E86A022200C0E9FF01C0F3FF025089
:1041F000AFEC0BF0006EF3CF01F0F4CF02F0F2CF92
:10420000E5FFF29E0500220EFD6E020EFE6E000E10
:10421000FF6EE450F26E02C0FBFF01C0FAFF0050D7
:10422000F96EA4D05E50030DF3CF00F0F4CF01F08F
:1042300000018A5100268B5101228C51026A022210
:1042400000C0E9FF01C0F3FF0250AFEC0BF0006EBD
:10425000F3CF01F0F4CF02F06C50E838E8440F0BD4
:10426000E56AE56EE56A030EE56E55EC0AF0036E4D
:10427000F3CF04F0040EE12603500026045001227F
:10428000E86A022200C0E9FF01C0F3FF0250AFEC70
:104290000BF0006EF3CF01F0F4CF02F0F2CFE5FFA8
:1042A000F29E0500C00EFD6E020EFE6E000EFF6E49
:1042B000E450F26E02C0FBFF01C0FAFF0050F96E3D
:1042C00055D0006A6CB4002A0050010A01E04ED0BB
:1042D0005E50030DF3CF00F0F4CF01F000018D51DB
:1042E00000268E5101228F51026A022200C0E9FF8E
:1042F00001C0F3FF0250AFEC0BF0006EF3CF01F002
:10430000F4CF02F06C50E838E8440F0BE56AE56E34
:10431000E56A030EE56E55EC0AF0036EF3CF04F088
:10432000040EE1260350002604500122E86A02220E
:1043300000C0E9FF01C0F3FF0250AFEC0BF0006ECC
:10434000F3CF01F0F4CF02F0F2CFE5FFF29E0500CB
:104350006C0EFD6E030EFE6E000EFF6EE450F26EEC
:1043600002C0FBFF01C0FAFF0050F96E6896E4CF6F
:1043700004F0E4CF03F0E4CF02F0E4CF01F0E4CFA7
:1043800000F0120012010002FF00FF08D804AAFE8C
:1043900001000102030209021200010104C0000928
:1043A00004000000FFFFFF0409022000010205C015
:1043B000000904000002FFFFFF050705010240009D
:1043C0000007058202400000960300A803000403D2
:1043D000090426034A00650061006E002D005000AC
:1043E0006900650072007200650020004D00410008
:1043F0004E0044004F004E002203500069006E0042
:104400006700750069006E006F00200050007200A8
:104410006F006A006500630074000403310010033C
:10442000440065006600610075006C0074000C03B8
:1044300046006C00610073006800CE0300D20300E8
:10444000F803001A04001E04002E0400281700AC14
:104450001800AC1800AC1800AC1800AC1800AC1870
:1044600000AC1800AC1800AC1800AC1800AC180078
:10447000AC1800AC1800AC1800AC18002817003EAF
:104480001800961800AC1800AC1800AC1800AC1856
:1044900000AC1800AC1800AC1800AC1800AC180048
:1044A000AC1800AC1800AC1800AC18004C04004C60
:1044B00004007C040000A00800AC1800AC1800AC9C
:1044C0001800AC1800AC1800AC1800AC1800AC1800
:1044D00000AC1800AC1800AC1800AC1800AC180008
:1044E000AC1800AC1800A00800AC1800041400AC14
:1044F0001800AC1800AC1800AC1800AC1800AC18D0
:1045000000AC1800AC1800AC1800AC1800AC1800D7
:10451000AC1800AC1800B60400B60400E6040000B5
:10452000281700AC1800AC1800AC1800AC1800AC90
:104530001800AC1800AC1800AC1800AC1800AC188F
:1045400000AC1800AC1800AC1800AC1800AC180097
:10455000281700F80C00AC1800AC1800AC1800AC20
:104560001800AC1800AC1800AC1800AC1800AC185F
:1045700000AC1800AC1800AC1800AC1800AC180067
:1045800020050020050050050000DC1000AC1800DC
:10459000AC1800AC1800AC1800AC1800AC1800AC9B
:1045A0001800AC1800AC1800AC1800AC1800AC181F
:1045B00000AC1800AC1800AC18008A05008A050091
:1045C0008A0500000301000000FF1F000300200017
:1045D000FF7F00010000300D0030E8060000E850C9
:1045E00007E000D000D000D000D00000E82EFAD7BD
:1045F0001200E806E56E090E12EC03F0630EEDEC16
:1046000002F0E4500EE000D0E56E090E12EC03F06B
:10461000630EEDEC02F000D000D00000E450E82E74
:10462000F3D71200E806E56E630EEDEC02F0E450FD
:104630000BE000D0E56E630EEDEC02F000D000D090
:104640000000E450E82EF6D7120000C0E5FF01C0DC
:10465000E5FF02C0E5FF0001A56B05010051E83848
:10466000E840030B006E005002E0E86A12D105EE4C
:1046700001F0EFCF00F0005001E103D10050010A3A
:1046800001E1FFD00050030A01E1FBD00050050A10
:1046900001E1CED00050060A1CE00050080A0DE0EF
:1046A0000050090A01E1C7D000500A0A01E1E9D02F
:1046B00000500B0A01E1E5D0E1D0000E0001916F3E
:1046C0005E0E906F800E926F010E0001986F996BD5
:1046D000D8D005EE03F0EFCF00F0010E005CD8A0BB
:1046E000A3D0040E005CD8B09FD0000603C0E5FF45
:1046F00004C0E5FF046A00340436E8340436FC0BD9
:10470000036E000EFB6E070EFA6E220E0326045097
:10471000FA22D8B0FB2A0350E4CF04F0E4CF03F030
:10472000F96E97EF03F0AEEF03F0E4EF03F078C01B
:1047300090F079C091F07AC092F078C000F079C022
:1047400001F07AC002F000C0E9FF01C0F3FF02509F
:10475000F1EC0BF00001986F996B93D005EE02F02D
:10476000EFCF00F00050030DF3CF00F0F4CF01F0D5
:1047700000017B5100267C5101227D51026A0222F8
:1047800000C0E9FF01C0F3FF0250AFEC0BF00001E5
:10479000906FF3CF91F0F4CF92F090C000F091C001
:1047A00001F092C002F0020E0026000E0122022249
:1047B00000C0E9FF01C0F3FF0250CAEC0BF000019A
:1047C000986FF3CF99F05DD005EE02F0EFCF00F0D7
:1047D0000050030DF3CF00F0F4CF01F000017E5143
:1047E00000267F5101228051026A022200C0E9FFA7
:1047F00001C0F3FF0250AFEC0BF00001906FF3CF5C
:1048000091F0F4CF92F090C000F091C001F092C00E
:1048100002F000C0E9FF01C0F3FF0250F1EC0BF021
:104820000001986F996B2DD0010E0001A56F29D062
:10483000040E5F6E26D078C000F079C001F07AC017
:1048400002F0110E0026000E0122022200C0E9FF34
:1048500001C0F3FF0250F1EC0BF0006E05EE02F028
:10486000EFCF01F00150005C05E3EFCFA4F0060E9E
:104870005F6E07D0010E0001A56F03D0010E00018D
:10488000A56F0001A551D880E866D890006A00366F
:104890000050E4CF02F0E4CF01F0E4CF00F01200CA
:1048A00000C0E5FF01C0E5FF02C0E5FF03C0E5FF72
:1048B00004C0E5FF5F50040A0BE105EE02F0EFCF04
:1048C0006EFF6E5003E0050E5F6E02D0030E5F6E4A
:1048D0000001A351010A29E1000E016E900E006E45
:1048E000800E026E000E046E980E036E800EE56E52
:1048F0000450E56E0350E56EE56A080EE56E025061
:10490000E56E0150E56E0050E56E000EE56A7BEC49
:1049100007F0090EE126040104BD03D0C80E046FA0
:1049200006D0880E0401046F02D094EC0BF05F50A7
:10493000060A01E0CCD0716A726A736A746A756A99
:10494000766A776A786A796A7A6A7B6A7C6A7D6A4B
:104950007E6A7F6A030E0001A45D1DE2AC0E0001B9
:10496000846F040E856F000E866F160E00018D6F2A
:10497000050E8E6F000E8F6F800E00018A6F050E80
:104980008B6F000E8C6FBA0E0001876F050E886F5B
:10499000000E896F3CD00A0EF66E200EF76E000EE8
:1049A000F86E0900F5CF84F00900F5CF85F0090015
:1049B000F5CF86F00D0EF66E200EF76E000EF86E37
:1049C0000900F5CF8DF00900F5CF8EF00900F5CF85
:1049D0008FF0100EF66E200EF76E000EF86E0900C6
:1049E000F5CF8AF00900F5CF8BF00900F5CF8CF0F8
:1049F000130EF66E200EF76E000EF86E0900F5CF5E
:104A000087F00900F5CF88F00900F5CF89F0A4C040
:104A10005EF00001A45103E1050E5F6E58D00F0E49
:104A20000001A66F0001A65103E0010E006E01D047
:104A3000006A0050D8B449D00001A451030DF3CF4F
:104A400000F0F4CF01F000018451002685510122CD
:104A50008651026A022200C0E9FF01C0F3FF025042
:104A6000AFEC0BF0006EF3CF01F0F4CF02F00001D9
:104A7000A651030DF3CF03F0F4CF04F0035000264A
:104A800004500122E86A022200C0E9FF01C0F3FFDE
:104A90000250AFEC0BF0006EF3CF01F0F4CF02F058
:104AA000F2CFE5FFF29E0500C40EFD6E0A0EFE6E0B
:104AB000000EFF6EE450F26E02C0FBFF01C0FAFF71
:104AC0000050F96E0001A607ADD7070E5F6EE4CF68
:104AD00004F0E4CF03F0E4CF02F0E4CF01F0E4CF40
:104AE00000F01200D9CFE5FFE1CFD9FF00C0E5FF0C
:104AF00001C0E5FF02C0E5FF03C0E5FF04C0E5FF1C
:104B000005C0E5FF06C0E5FF07C0E5FF020EDBCFED
:104B100000F0030EDBCF01F0040EDBCF02F0050E38
:104B2000DBCF03F0060EDBCF04F0070EDBCF05F082
:104B3000080EDBCF06F0090EDBCF07F000500001B6
:104B4000646F0150656F0250666F0350676F0450C9
:104B50000001686F0550696F06506A6F07506B6FF0
:104B60000001645100016A03F3CF00F0F4CF01F0BB
:104B7000005000016E6F01506F6F00016451000121
:104B80006803F3CF00F0F4CF01F0005000016C6F28
:104B900001506D6F0001675100016803F3CF00F011
:104BA00000016F51002600506F6F00016651000137
:104BB0006903F3CF00F000016F51002600506F6FC2
:104BC0000001665100016803F3CF00F0F4CF01F05B
:104BD00000016E5100266F51012200506E6F01508E
:104BE0006F6F0001655100016903F3CF00F0F4CF4E
:104BF00001F000016E5100266F51012200506E6FCE
:104C000001506F6F0001655100016A03F3CF00F09E
:104C100000500001736F0001655100016803F3CF7C
:104C200000F0F4CF01F000500001716F0150726F7D
:104C30000001645100016B03F3CF00F0005000014C
:104C4000776F0001645100016903F3CF00F0F4CFE6
:104C500001F000500001756F0150766F0001706B1C
:104C60000001746B0001705100016C25006E0001A1
:104C7000715100016D21016E0001725100016E2120
:104C8000026E0001735100016F21036E00506C6FC2
:104C900001506D6F02506E6F03506F6F00017451C1
:104CA00000016C25006E0001755100016D21016E3F
:104CB0000001765100016E21026E00017751000162
:104CC0006F21036E03C0E9FF02C0F4FF01C0F3FFD0
:104CD0000050E4CF07F0E4CF06F0E4CF05F0E4CFD6
:104CE00004F0E4CF03F0E4CF02F0E4CF01F0E4CF2E
:104CF00000F0E4CFD9FF1200D9CFE5FFE1CFD9FF13
:104D000000C0E5FF01C0E5FF02C0E5FF03C0E5FF0D
:104D100004C0E5FF05C0E5FF06C0E5FF07C0E5FFED
:104D200080B804D00A0EF9EC02F0FF0009C4A8F024
:104D3000010E0001A85DD8A0C2D010C500F0060E7B
:104D4000005CD8B0A7D008C0E5FF09C0E5FF096A3C
:104D500000340936E8340936FC0B086E000EFB6E91
:104D60000D0EFA6E7C0E08260950FA22D8B0FB2AE6
:104D70000850E4CF09F0E4CF08F0F96ECAEF06F06E
:104D8000D3EF06F0E2EF06F036EF07F037EF07F06B
:104D90003CEF07F011C5F6FF12C5F7FF13C5F8FF8A
:104DA000E0EC0BF080D011C5F6FF12C5F7FF13C57C
:104DB000F8FF050EE56E140EE56E42EC0BF0020EE8
:104DC000E12671D0400E00019A6F9B6B11C500F077
:104DD000016A12C502F0036A0350E56E0250E56EE7
:104DE000010EE56E000EE56E55EC0AF0026EF3CF93
:104DF00003F0040EE126025000260350012213C5E1
:104E000002F0036A046A056A0550E56E0450E56E17
:104E10000350E56E0250E56E000EE56E010EE56E84
:104E2000000EE56E000EE56E72EC05F0026EF3CF3B
:104E300003F0F4CF04F0E9CF05F0080EE126E86AAC
:104E400001BEFF0E066E076E0050022601500322BF
:104E5000065004220750052204500001956F0350AC
:104E6000946F0250936FA5EC0AF01DD01CD00A0E6F
:104E7000F9EC02F0FF0017D0160E00019A6F9B6B41
:104E8000C40E0001936F050E946F000E956FA5EC94
:104E90000AF009D0400E0401096F100E0A6F050ECA
:104EA0000B6F840E086F400E0401096F08BD03D01C
:104EB000C80E086F0DD0880E0401086F09D0400E8F
:104EC0000401096F100E0A6F050E0B6F840E086F38
:104ED000E4CF07F0E4CF06F0E4CF05F0E4CF04F030
:104EE000E4CF03F0E4CF02F0E4CF01F0E4CF00F030
:104EF000E4CFD9FF1200D9CFE5FFE1CFD9FF00C041
:104F0000E5FF01C0E5FF02C0E5FF03C0E5FF04C007
:104F1000E5FF05C0E5FF06C0E5FF07C0E5FF08C0E7
:104F2000E5FF09C0E5FF0AC0E5FF0BC0E5FF020E83
:104F3000DBCF00F0030EDBCF01F0040EDBCF02F07D
:104F4000050EDBCF03F0060EDBCF04F0070EDBCF40
:104F500005F0080EDBCF06F0090EDBCF07F00A0ED6
:104F6000DBCF08F006C0E9FF07C0F3FF0850CAEC2A
:104F70000BF0096EF3CF0AF005500A5C02E1045011
:104F8000095C05E209C096F00AC097F004D004C09D
:104F900096F005C097F000500024046E0428040D1C
:104FA000F3CF00F0000E0024046E056A040E052203
:104FB000042AD8B0052A000196510B6E04C0E9FFFF
:104FC00005C0EAFF0BC0EFFF000E0026040E046AC6
:104FD0000422020E0026D8B0042A00C0E9FF04C053
:104FE000EAFFEECF00F0EFCF04F004500001826F33
:104FF0000050816F800E836F00019651095E9751BA
:105000000A5A09C0E5FF0AC0F4FF06C0E9FF07C05D
:10501000F3FF08502BEC0CF0000196519711D8B417
:1050200042D081C000F082C004F083C005F001C00E
:10503000E9FF02C0F3FF0350AFEC0BF0066EF3CFB5
:1050400007F0F4CF08F006C0E9FF07C0F3FF0850EF
:10505000F1EC0BF0096E09C0E5FF00C0E9FF04C0E8
:10506000F3FF055041EC0CF00001812B01E3822B92
:1050700002E30001832B062AD8B0072AD8B0082AF9
:1050800006C0E5FF07C0F4FF08C0F6FF01C0E9FF56
:1050900002C0F3FF035011EC0CF0FF0E0001962745
:1050A00001E29707B9D7E4CF0BF0E4CF0AF0E4CFE1
:1050B00009F0E4CF08F0E4CF07F0E4CF06F0E4CF46
:1050C00005F0E4CF04F0E4CF03F0E4CF02F0E4CF46
:1050D00001F0E4CF00F0E4CFD9FF120000C0E5FFFB
:1050E00001C0E5FF02C0E5FF03C0E5FF04C0E5FF26
:1050F0000001A36B0001986B996B25EC03F0006E27
:105100000050D8B46AD06D98006A050100BF002A2B
:105110000050010A01E04ED0010E0001A36F080EFD
:105120000401016F000E006E050E016E0050026F4B
:105130000150036F800E006F080E006E050E016EA9
:105140000050066F0150076F05EE06F0EECF00F03D
:10515000EFCF01F000019951015C02E19851005C30
:1051600006E205EE06F0EECF98F0EFCF99F0000ED4
:10517000016E900E006E800E026E000E046E980E90
:10518000036E800EE56E0450E56E0350E56EE56A31
:10519000080EE56E0250E56E0150E56E0050E56EBA
:1051A000000EE56A7BEC07F0090EE126C80E04014B
:1051B000046F22D0020E0001A36F080E0401016FDC
:1051C000080E006E050E016E0050026F0150036F55
:1051D000C80E006F056B046F0FD06D98080E0401A8
:1051E000016F000E006E050E016E0050026F01503F
:1051F000036F840E006F046FE4CF04F0E4CF03F07C
:10520000E4CF02F0E4CF01F0E4CF00F0120000C0E0
:10521000E5FF0001606B616B080E626F636B00015C
:10522000605161116211631106E0FF0E6027612376
:1052300062236323F4D7000EF66E200EF76E000E85
:10524000F86E0900F5CF00F000502EE1010EF66E69
:10525000200EF76E000EF86E0900F5CF78F0090009
:10526000F5CF79F00900F5CF7AF0040EF66E200E36
:10527000F76E000EF86E0900F5CF7BF00900F5CF50
:105280007CF00900F5CF7DF0070EF66E200EF76E6C
:10529000000EF86E0900F5CF7EF00900F5CF7FF023
:1052A0000900F5CF80F015D0840E0001786F030E51
:1052B000796F000E7A6FC80E00017B6F030E7C6F52
:1052C000000E7D6F3A0E00017E6F040E7F6F000EA0
:1052D000806FAC0E0001846F040E856F000E866F28
:1052E000160E00018D6F050E8E6F000E8F6F800EF3
:1052F00000018A6F050E8B6F000E8C6FBA0E0001D5
:10530000876F050E886F000E896FE4CF00F01200E2
:1053100000C0E5FF01C0E5FF02C0E5FF03C0E5FFF7
:1053200004C0E5FF686A7B0E696E6B6A6E6A68A6E8
:1053300002D06896FCD7030E5F6E5E6A5D6A706A83
:10534000716A726A736A746A756A766A776A786A69
:10535000796A7A6A7B6A7C6A7D6A7E6A7F6A6D98FE
:10536000100E0001A26F84C000F085C001F086C05D
:1053700002F000C0E9FF01C0F3FF0250AFEC0BF0F8
:10538000006EF3CF01F0F4CF02F00001A205030D8F
:10539000F3CF03F0F4CF04F00350002604500122B1
:1053A000E86A022200C0E9FF01C0F3FF0250AFEC3F
:1053B0000BF0006EF3CF01F0F4CF02F0F2CFE5FF77
:1053C000F29E0500E00EFD6E130EFE6E000EFF6EE7
:1053D000E450F26E02C0FBFF01C0FAFF0050F96E0C
:1053E0000001A207A251D8A4BED7100EA26FE4CF2D
:1053F00004F0E4CF03F0E4CF02F0E4CF01F0E4CF17
:1054000000F0120000C0E5FF01C0E5FF02C0E5FFAB
:1054100003C0E5FF04C0E5FF00019A519B1104E1C0
:105420000001A851D8A436D0000E00019B5D02E116
:10543000400E9A5DD8700001A86BA83700019A5100
:105440000401156F000E016E930E006E800E026E49
:10545000000E046E9A0E036E800EE56E0450E56E2B
:105460000350E56EE56A400EE56E0250E56E0150B0
:10547000E56E0050E56E020EE56E7BEC07F0090E5E
:10548000E126040114BD03D0C80E146F03D0880EAA
:105490000401146FE4CF04F0E4CF03F0E4CF02F092
:1054A000E4CF01F0E4CF00F01200D9CFE5FFE1CF67
:1054B000D9FF00C0E5FF01C0E5FF02C0E5FF03C062
:1054C000E5FF020EDBCF00F0030EDBCF01F0040E90
:1054D000DBCF02F0050EDBCF03F0005000019C6F24
:1054E00001509D6F025000019E6F03509F6F00019D
:1054F0009C5100019E03F3CF00F0F4CF01F0005067
:105500000001A06F0150A16F00019C5100019F0399
:10551000F3CF00F000019D5100019E03F3CF01F095
:10552000015000260001A15100260050A16FA1C02A
:10553000F3FFA051E4CF03F0E4CF02F0E4CF01F099
:10554000E4CF00F0E4CFD9FF120000C0E5FF01C0B6
:10555000E5FF02C0E5FF03C0E5FF04C0E5FF000E64
:1055600000019B5D02E1400E9A5DD8700001A86BBE
:10557000A83700019A510401156F500E166F050EE1
:10558000176F000E016E930E006E800E026E000EFD
:10559000046E9A0E036E800EE56E0450E56E0350A5
:1055A000E56EE56A400EE56E0250E56E0150E56E6F
:1055B0000050E56E020EE56E7BEC07F0090EE12669
:1055C000040114BD03D0C80E146F03D0880E04016B
:1055D000146FE4CF04F0E4CF03F0E4CF02F0E4CFA3
:1055E00001F0E4CF00F012009298808807EC09F0F7
:1055F00002EC0CF0C00E006E270E016E090E026E5A
:10560000036A51EC0CF03DEC00F0000EF66E200E3B
:10561000F76E000EF86E0900F5CF04F0045003E0B9
:105620000450010AEEE1FF0E0026012202220322AD
:105630000050011002100310E4E192988098160EB9
:10564000F66E200EF76E000EF86E0900F5CF00F032
:105650000900F5CF01F00900F5CF02F0F2CFE5FF28
:10566000F29E0500800EFD6E160EFE6E000EFF6EA1
:10567000E450F26E02C0FBFF01C0FAFF0050F96E69
:10568000FFD71200D9CFE5FFE1CFD9FF00C0E5FF7A
:1056900001C0E5FF020EDBCF00F0030EDBCF01F00F
:1056A0000A000001A96B200E0001A95D0DE200C0F7
:1056B000E9FF01C0EAFFEFCFF5FF002AD8B0012AC9
:1056C0000F000001A92BEFD7A68EA69CA684F29E00
:1056D000550EA76EAA0EA76EA682E4CF01F0E4CF06
:1056E00000F0E4CFD9FF1200E8AE0AD0F3CFEAFF12
:1056F000EE50EECFF3FFEECFF4FFEECFE9FF120056
:10570000E8BC11D0E9CFF6FFF3CFF7FFF86E090040
:10571000F5500900F5CFF3FF0900F5CFF4FF0900BC
:10572000F5CFE9FF1200120000C0E5FF01C0E5FF60
:105730000001A36B080E0401016F000E006E050E40
:10574000016E0050026F0150036F880E006F046BF2
:10575000160E706EE4CF01F0E4CF00F01200E8AE58
:1057600008D0F3CFEAFFEE50EECFF3FFEECFF4FF19
:105770001200E8BC0ED0E9CFF6FFF3CFF7FFF86ECA
:105780000900F5500900F5CFF3FF0900F5CFF4FF4C
:1057900012001200E8AE06D0F3CFEAFFEE50EECFD3
:1057A000F3FF1200E8BC0BD0E9CFF6FFF3CFF7FF11
:1057B000F86E0900F5500900F5CFF3FF1200120052
:1057C000D9CFE5FFE1CFD9FFA68EA69CA684A688F7
:1057D000F29E550EA76EAA0EA76EA682E4CFD9FF41
:1057E0001200E8AE04D0F3CFEAFFEE501200E8BC9E
:1057F00008D0E9CFF6FFF3CFF7FFF86E0900F550B8
:1058000012001200696A140E6F6E080E6D6E6DBA8A
:10581000FED7686A110E696E020E5F6E5E6A5D6A7F
:105820001200E8AE09D0F3CFEAFFE4CFEEFFF4CFE9
:10583000EEFFF6CFEEFF1200E8AC12001200400EB1
:105840000401096F100E0A6F050E0B6F880E086FAA
:105850001C0E716E1200E8AE07D0F3CFEAFFE4CF62
:10586000EEFFF4CFEEFF1200E8AC1200120012EED1
:10587000FEF022EEFEF0F86AA68EA69CF4EC0AF08A
:10588000FFD7E8AE05D0F3CFEAFFE4CFEEFF12007A
:10589000E8AC12001200480E0401146F1A0E726E6A
:0E58A00012006DA202D0A08AA19A120012007E
:00000001FF
