:020000040000FA
:060000001FEF1FF01200CB
:0600080080EF1CF0120065
:0600180089EF1CF012004C
:060800001FEF1FF01200C3
:0608080080EF1CF012005D
:0608180089EF1CF0120044
:061000001FEF1FF01200BB
:0610080080EF1CF0120055
:0610180089EF1CF012003C
:1020000001000000000000000000000000000000CF
:092010000000000000003E3E004B
:0A3800000001020EA06F939E12005B
:04382000819E120073
:04384000818E120063
:10390000DACFE4FFE2CFDAFFE652E552E5CFDAFFA5
:103910001100D8CFE4FFE0CFE4FFE46EDACFE4FF9C
:10392000E2CFDAFFE652E552E5CFDAFFE550E5CF28
:10393000E0FFE5CFD8FF1000F29E550EA76EAA0E4D
:10394000A76EA682A6B2FED7A6941200A1C0F6FF6B
:10395000A2C0F7FFA3C0F8FF0400940EA66EECDF30
:103960001200A1C0F6FFA2C0F7FFA3C0F8FFE00E4F
:10397000F6160001A76B200E0001A75D0DE2000105
:10398000A751EA6A600FE96E000EEA22EF50F56E69
:103990000D000001A72BEFD70A000400A40EA66EAD
:1039A000CBDFA1C0F6FFA2C0F7FFA3C0F8FF200E37
:1039B000F626000EF722000EF8220001200EA76F57
:1039C000400E0001A75D0DE20001A751EA6A600FF9
:1039D000E96E000EEA22EF50F56E0D000001A72BF4
:1039E000EFD70A000400A40EA66EA6DF1200A4C042
:1039F000F6FFA5C0F7FFA6C0F8FF0001A86B400EB8
:103A00000001A85D0DE209000001A851EA6A600FFB
:103A1000E96E000EEA22F5CFEFFF0001A82BEFD7E9
:103A20001200F29E00EC1CF010EC1CF00001A05102
:103A3000106E116A086A010E096E10C00DF011C0F7
:103A40000EF0BCEC1EF00850E66EE2EC1EF0E55203
:103A50000001A051106E116A086A010E096E10C0B3
:103A60000DF011C00EF0BCEC1EF00850E66EE2EC5A
:103A70001EF0E5520001A051106E116A086A010E95
:103A8000096E10C00DF011C00EF0BCEC1EF0085015
:103A9000E66EE2EC1EF0E5520001A051106E116AD4
:103AA000086A010E096E10C00DF011C00EF0BCECDA
:103AB0001EF00850E66EE2EC1EF0E5520001A05147
:103AC000106E116A086A010E096E10C00DF011C067
:103AD0000EF0BCEC1EF00850E66EE2EC1EF0E55273
:103AE0000001A96B0001A951080DF3CFF6FFF4CF37
:103AF000F7FF000EF6263F0EF7220900F5CFAAF0D9
:103B00000A00F5CFABF00001AA51AB1101E172D070
:103B10000001A951080DF3CFF6FFF4CFF7FF000E17
:103B2000F6263F0EF722020EF626000EF7220900B7
:103B3000F5CFA4F00900F5CFA5F00800F5CFA6F069
:103B40000001A951080DF3CFF6FFF4CFF7FF000EE7
:103B5000F6263F0EF722050EF626000EF722090084
:103B6000F5CFA1F00900F5CFA2F00800F5CFA3F042
:103B70000001000ED880AA55000EAB5538E220ECAB
:103B80001CF0600E106EA0C00EF010C009F02DECFD
:103B90001FF00950E66EE2EC1EF0E552D7DE27DF9B
:103BA000E0DE10EC1CF0300E106EA0C00EF010C065
:103BB00009F02DEC1FF00950E66EE2EC1EF0E55224
:103BC000400E0001A427000E0001A523000E0001F5
:103BD000A623400E0001A127000E0001A223000E23
:103BE0000001A3230001AA07000EAB5BC1D70001AF
:103BF000A92B78D710EC1CF00001A051106E116AAF
:103C0000086A010E096E10C00DF011C00EF0BCEC78
:103C10001EF00850E66EE2EC1EF0E5520001A051E5
:103C2000106E116A086A010E096E10C00DF011C005
:103C30000EF0BCEC1EF00850E66EE2EC1EF0E55211
:103C40000001A051106E116A086A010E096E10C0C1
:103C50000DF011C00EF0BCEC1EF00850E66EE2EC68
:103C60001EF0E5520001A051106E116A086A010EA3
:103C7000096E10C00DF011C00EF0BCEC1EF0085023
:103C8000E66EE2EC1EF0E5520001A051106E116AE2
:103C9000086A010E096E10C00DF011C00EF0BCECE8
:103CA0001EF00850E66EE2EC1EF0E5520001A05155
:103CB000106E116A086A010E096E10C00DF011C075
:103CC0000EF0BCEC1EF00850E66EE2EC1EF0E55281
:083CD00020EC1CF0FF001200C3
:023CD8000000EA
:063CDA00D80EF66E3C0E50
:103CE000F76E000EF86E00010900F550B16F090083
:103CF000F550B26F03E1B16701D03DD00900F55036
:103D0000AC6F0900F550AD6F0900F550AE6F0900BA
:103D10000900F550E96E0900F550EA6E0900090046
:103D20000900F550AF6F0900F550B06F09000900A8
:103D3000F6CFB3F0F7CFB4F0F8CFB5F0ACC0F6FFE4
:103D4000ADC0F7FFAEC0F8FF0001AF5302E1B053C2
:103D500007E00900F550EE6EAF07F8E2B007F9D7BB
:103D6000B3C0F6FFB4C0F7FFB5C0F8FF0001B1075C
:083D7000000EB25BBFD7120088
:083D7800006A0EAEC5EF1EF05B
:103D80000D6C0E1EE86A0E22001E09AECDEF1EF06D
:103D9000086C091EE86A0922001EF9EC1EF009BE33
:103DA000DDEF1EF000AE000C086C091EE86A092267
:103DB000046C051EE86A0522000C00BED4EF1EF05C
:043DC0000188FF0C6B
:0C3DC400FF0EE350136EEF0E01D0F30E63
:103DD000E76EE72EE9EF1EF00C0E126EE76AE72E93
:103DE000EFEF1EF0122EEEEF1EF0132EE7EF1EF097
:023DF0001200BF
:0E3DF200056A046A100EE76ED890083609368E
:103E0000043605360D50045C0E50055805E30D5080
:0E3E1000045E0E50055A082AE72EF0D7120065
:023E1E00000E94
:103E2000F36E00EE00F0040E01D81200EA6002D03A
:0E3E3000EE6AFCD7F350E9601200EE6AFCD790
:023E3E0013EE81
:103E400000F023EE00F0F86A019C6DEC1EF03BECF4
:0A3E50001FF011EC1DF0FBD712006B
:063E5A00056A080EE76E88
:103E6000D890093605360E50055C02E3056E092A26
:063E7000E72EF7D7120057
:023E7600120038
:083F0000410000400000000038
:083F08000000000000000000B1
:06400000EBEF07F01200D7
:0640080004EF08F01200B5
:064018000CEF08F012009D
:0E4020000100F40F0000BB00000002000000D1
:02402E00F00E92
:104030008C169516939E0001636B676968696969C0
:10404000666B010E6A6F1200D9CFE6FFE1CFD9FF90
:10405000E652000163511FE1040108BF1BD0400E6E
:10406000E66E700EE66E030EE66E06EC06F0E552A6
:10407000E552E5520001010E636FDF6A400EDF5C1E
:1040800009E2DF50EA6AB00FE96E030EEA22EF6A36
:10409000DF2AF4D796D103017051080A01E180D1DB
:1040A0000F0A01E123D1010A01E118D1030A01E15C
:1040B000B4D0010A6AE0070A5DE0010A01E081D19B
:1040C0000301020EB06F03013A0EB16F0301010E3E
:1040D000B26F0301010EB36F0301B46B100EB56F25
:1040E000B66BB76B0301B86B700EB96FBA6BBB6B75
:1040F0000301030EBC6F0301BD6BBE6B300EBF6FBF
:10410000C06B03010E0EC16FC26BC36BC46B0301A6
:10411000010EC56F0301C66BC76B200EC86FC96B5C
:104120000301080ECA6FCB6BCC6BCD6B0301CE695C
:104130000301020ECE6F0301CF6BD06BF00ED16F77
:10414000D26B0301D36B010ED46FD56BD66B030119
:10415000D76904010CBF0DD0400EE66EB00EE66EBE
:10416000030EE66ED6EC05F0E552E552E55200018D
:10417000636B27D10001010E6A6F0301715102E1E7
:1041800000016A6B0001636B1CD1400E0001646F7B
:10419000656B0001000E645D020E65591FE20400AC
:1041A00064C000F065C001F0026A060E1F0B00C07B
:1041B000F6FF01C0F7FF02C0F8FF06E0D890F63620
:1041C000F736F836E806FAE1940EA66E9DD960EC53
:1041D00006F00001642B000E6523DBD7DF6ADF5099
:1041E000A96EA868040EA66E60EC06F08DD9DF50AB
:1041F000DF2A006E016A026AFF0E005C000E0158A1
:10420000000E0258ECE3F66AF76A200EF86E940E80
:10421000A66E7AD90001636BD4D0300E0301735DB2
:1042200007E100016A5101E132D90001636BC9D095
:10423000F00E0301735D04E14DD90001636BC1D041
:10424000E8680001671905E1E868681902E1E868B3
:10425000691906E171C367F072C368F073C369F04E
:10426000670EE96E000EEA6EEE500301711908E167
:10427000EE500301721904E1EE500301731900E1DD
:104280002AE1DF6A03017551DF5C25E23A0E030182
:10429000D8807555DF24EA6A760FE96E030EEA22AC
:1042A000EF50E66E00016651EA6A6B0FE96E000E90
:1042B000EA22E552E750EF6E0001662B0001672B02
:1042C000000E6823000E6923200E0001665D01E1E7
:1042D0007DD8DF2AD7D70001636B73D077D8000170
:1042E0006769686969690001636B6BD00301070E38
:1042F000B06F71C3B1F372C3B2F373C3B3F374C3DA
:10430000B4F375C3B5F371C3F6FF72C3F7FF73C39C
:10431000F8FFDF6A03017551DF5C31E2F00E030143
:10432000735D13E1DF5003017125A96EA66AA680B3
:104330003A0E0301D8807555DF24EA6AB60FE96E9C
:10434000030EEA22A8CFEFFF18D00900300EF85C68
:1043500008E1050EF65C01E1F568080EF65C01E186
:10436000F5683A0E0301D8807555DF24EA6AB60F66
:10437000E96E030EEA22F5CFEFFFDF2ACBD7040167
:104380000CBF0DD0400EE66EB00EE66E030EE66E6C
:10439000D6EC05F0E552E552E5520001636B11D011
:1043A0006D926D6ADF6AFF0EDF5C09E2E868E85033
:1043B00004E0E80600D000D0FAD7DF2AF4D7FF00E7
:1043C00000D0E552E552E7CFD9FF12000301F16BAF
:1043D00066C000F0016A026A00500001675DF66E77
:1043E000015000016859F76E025000016959F86EDA
:1043F0001F0EF6140301F26FE00EF6160301F06BC8
:10440000200E0301F05D1FE20301F25115E10001EE
:1044100066510FE00301F151EA6A6B0FE96E000E7D
:10442000EA22EF50F56E0D000301F12B0001660743
:1044300002D0F5680D0004D0F5680D000301F20705
:104440000301F02BDDD70A00A40EA66E5DD8030190
:10445000F06B000166510301F05D18E20301F151B8
:104460000301F025EA6A6B0FE96E000EEA22EF50B5
:10447000E66E0301F051EA6A6B0FE96E000EEA2264
:10448000E552E750EF6E0301F02BE3D7120071C342
:10449000F6FF72C3F7FF73C3F8FF0301F36B030169
:1044A00075510301F35D15E23A0E0301D88075558D
:1044B0000301F325EA6A760FE96E030EEA22EF5054
:1044C000F56E0C00C40EA66E1FD809000301F32B75
:1044D000E6D712000301F46B7551F45D14E27151DB
:1044E000F425A96E3A0ED8807555F425EA6A760F40
:1044F000E96E030EEA22EF50A86E040EA66E04D8F1
:104500000301F42BE9D71200F29E550EA76EAA0EF6
:0C451000A76EA682A6B2FED7A6941200E9
:04451C007AD9E65210
:104520006C5032E16896040100513C0BE842E842CD
:104530000D0828E1180E021923E1040E031920E1E9
:10454000100E026F040E036FDF6ADF50006E016A07
:10455000080E005C000E015813E2DF50EA6A180FE3
:10456000E96E040EEA22EF50E66EDF50EA6A100FA1
:10457000E96E040EEA22E552E750EF6EDF2AE5D736
:104580000ED80AD03FD808D0040E6C5C03E16896C0
:1045900050D802D0000E01D0010EE5523FD139D9DA
:1045A000E652040104BF046B0001B36BAB6BAC6B50
:1045B000B16BB26B1AEC04F0DF6ADF50006E016A77
:1045C000010E005C000E01581AE20001AC5117E127
:1045D000F76ADF34FE0BF736F66E8E0EF6260E0EF9
:1045E000F7220900F5CF00F00800F5CF01F004D064
:1045F00001C0FAFF0050F96EFBDFDF2ADED7B4D826
:10460000E5520CD1020E0001AB5D0EE181D8040130
:10461000180E026F040E036F080E016F00BD02D06A
:10462000C80E05D0880E03D0D8D8E4D88C0E006F01
:104630001200040E0001B45D09E112C46EFF6E5059
:10464000000802E2050E01D0030EB46F0001AB05B5
:1046500010E111D8020E0001B35D03E10401840EE4
:1046600006D0040104BD02D0C80E01D0880E046F2C
:104670001200EDEF03F0CDD8020EE1260001080E86
:10468000B15D000EB2590DE2B1C0DEFFB2C0DDFF78
:10469000B35102E1010E03D0B30506E1020EB36F80
:1046A00003D0080EDE6EDD6A040104930491010E4E
:1046B000DB500413DFCF05F4000EDB500001B15FC7
:1046C000010EDB50B25B180EAF6F040EB06F00012D
:1046D000B5A30CD097D815E0ADC0F6FFAEC0F7FF7C
:1046E0000800F5507FD8F6E2DB06F4D78BD809E056
:1046F000ADC0E9FFAEC0EAFFEF5074D8F7E2DB06C9
:10470000F5D7020EE15C02E2E16AE552E16E86D085
:1047100080D8020EE126030E04010015E76E010E9B
:10472000E7CFDBFF01C4DFFFDE500001B127DD5022
:10473000B223180EAD6F040EAE6F64D80EE0ADC09C
:10474000E9FFAEC0EAFFEF50AFC0E9FFB0C0EAFF3B
:10475000EF6E68D8F2E2DB06F0D7020EE15C02E20F
:10476000E16AE552E16E5AD06D980001AC5105E165
:1047700041D8840E006F04011DD0040110AF1CD07D
:104780000001B1510401165D0001B2510401175935
:1047900004E216C4B1F017C4B2F06DDF0001010EDF
:1047A000AB6F28D8800E006F0401180E066F040E40
:1047B000076FC80E046F12000001020EAB6F0401F8
:1047C000056BC80E046F0401080E016F180E026F0E
:1047D000040E036FC80E006F12000001AB6B0401E2
:1047E000046B1200AFC0E9FFB0C0EAFFEF6E00013A
:1047F00012EF04F00401080E016F100E026F040E98
:10480000036F1200D9CFE9FFDACFEAFFEE50ED10C7
:104810001200D9CFE6FFE1CFD9FF1200E552E7CF72
:10482000D9FF1200AF2B000EB023AD2BAE23DF0655
:04483000010E120063
:0C48340004011051600BE842E842E84229
:10484000E842E842000901E012001151070A40E085
:104850000B0A3EE0070A33E0010A23E00B0A1FE0DF
:10486000020A1DE0030A19E0080A10E0010A0CE040
:104870000F0A08E0030A01E0120012D90001040E39
:10488000B46F120069EF04F0A0EF04F009D9000141
:10489000B60EAD6F000EAE6F0CD0BBEF04F0EDEFB7
:1048A00004F002D90001AD6FAE6BB70EAD27000E5C
:1048B000AE230001B5930001010EB16F1200F4D8D0
:1048C000EA6AB70FE96E000EEA2212C4EFFF120087
:1048D0001200800E0401105D32E11351030A1FE043
:1048E000010A0AE0030A29E1DBD80001CE0EAD6F10
:1048F0000D0EAE6F120E1ED0B2D8840EF6260E0E1E
:10490000C0D8020E0001F76AAD25F66EAE51F7224F
:104910000900F5CFB1F00A00F5CFB2F00ED09FD864
:10492000880EF6260E0EADD8ADC0F6FFAEC0F7FF6E
:104930000800F5500001B16FB26B0001B5831200A1
:10494000AFD80F0EE66E710EE66E0F0EA2D8010EF6
:10495000E66EB70EE66E000E9CD812C4B6F00401E7
:10496000125104E10001050EB46F12000001060EA1
:10497000B46FC1EF05F00401186B196B04011051FD
:104980001F0B020A0FE0030A0BE0010A18E188D8A6
:10499000040118810001B5A112D0040118830FD0C1
:1049A0007FD80DD050D801E0010E62D8AFC0E9FF2A
:1049B000EA6EEF50040B03E00401010E186F0001D2
:1049C000AC050AE10001180EAD6F040EAE6F0001D8
:1049D000B5930001020EB16F1200040112050EE141
:1049E00010511F0B00090AE15BD8030E0401115D91
:1049F00003E10001B58102D00001B591040112511B
:104A000021E110511F0B02081DE114510F0B000989
:104A100019E019D801E0010E2BD8030E0401115D35
:104A200002E1840E03D014AF07D0400EAFC0E9FFFF
:104A3000B0C0EAFFEF6E1200880EAFC0E9FFB0C051
:104A4000EAFFEF6E120030D80F0B080DF350016A29
:104A5000000F006E040E01221451800B120020D8AA
:104A600004011251F66EF76AD890F636F736120046
:104A7000040DF35000010024AF6F000E0120B06F51
:104A80001200F7220900F5CFADF00A00F5CFAEF025
:104A90001200E66ED2EC06F0E552E552E552120045
:104AA0000001010EAC6F1200FBDF04011451120073
:104AB000040110511F0B010801E01200145101E024
:104AC0001200060E115D24E11351230A1FE0010AB2
:104AD0000DE0030A1BE1DBD80001B60505E100018A
:104AE000F20EAD6F0D0EAE6F090E0DD0D0D80001D5
:104AF000B60505E10001670EAD6F0E0EAE6F000149
:104B0000B60504E11D0E0001B16FB26B0001B58363
:104B100004011051600BE842E842E842E842E842F2
:104B2000010801E0120011510B0A25E0080A17E004
:104B3000090A11E0080A09E00B0A05E0080A01E089
:104B40001200BFEF05F0C0EF05F0A1D80001B80ECC
:104B5000AD6F000E09D09BD813C4B8F0120097D8DF
:104B60000001B90EAD6F000EAE6F0001B5930001EC
:104B7000010EB16F12008BD812C4B9F012001200EE
:104B800012000001BA6B1E0E716E0401400E096F17
:104B9000200E0A6F040E0B6F880E086F0401600E62
:104BA0000E6F040E0F6F400E0C6F1200D9CFE6FF90
:104BB000E1CFD9FFE652FC0EDB50400805E2400E83
:104BC000F36EFC0EF3CFDBFFDF6AFC0EDB50DF5C25
:104BD0000FE2DF5050D8EF50E66EDF50EA6A600F08
:104BE000E96E040EEA22E552E750EF6EDF2AEDD7B8
:104BF000FC0EDBCF0DF4400E04010C170C7D880E6B
:104C00000C13E552E552E7CFD9FF1200D9CFE6FFEA
:104C1000E1CFD9FF0001BA6B040108BF26D0FC0E1A
:104C2000DBCF00F00951D880005403E2FC0E09C428
:104C3000DBFF0001BA6BFC0EDB50BA5D0FE2BA512C
:104C4000EA6A200FE96E040EEA22EF50E66EBA51CE
:104C500012D8E552E750EF6EBA2BEDD70401400EA3
:104C6000096F0817087D880E08130001BA51E55234
:104C7000E7CFD9FF1200E76EFD0EDBCFE9FFFE0E96
:104C8000DBCFEAFFE750E926000EEA22120000011E
:064C9000020EAC6F1200E1
:0A4C96006DA60CD80001B40508E17A
:104CA0006DBA06D0686A696A69806988020EB46F55
:104CB00012006D6A696A6D860001010EB46F120000
:104CC0000001B45101E1120068B425D86DB21200A0
:104CD00068B038D868B817D868BA24D8030E00016D
:104CE000B45D01E212000301FF6B040EFF5D0AE2F6
:104CF00068A608D08EEC02F0000901E16896030175
:104D0000FF2BF3D71200698468986D82A19AA08A5C
:104D10000300A09A12006D92699468A402D068946E
:104D2000FCD7120070A00CD0800E0401005D07E1DA
:104D3000840E0401045D03E104018C0E006F709089
:104D4000689A12006A6A686A9F0E6B6E7B0E696EC3
:104D50006E6A0F0EE66E710EE66E0F0EE66E22D8CC
:104D6000E552E552E552160E706E68A605D06896BB
:104D700000D000D00000F9D76D98EDEC03F00401ED
:104D8000080E016F0401100E026F040E036F040180
:104D90008C0E006F0001B5910001B66B0001030E8F
:104DA000B46F1200D9CFE6FFE1CFD9FFFD0EDBCF04
:104DB000E9FFFE0EDBCFEAFFFC0EDB5004E0EE6AFB
:0E4DC000FC0EDB06F9D7E552E7CFD9FF120053
:024DCE001201D0
:104DD000000200000008D8043C00020001020001AB
:104DE00009022900010100C0320904000002030089
:104DF0000000092111010001221D00070581034067
:104E00000001070501034000010403090434034DB8
:104E1000006900630072006F006300680069007041
:104E200000200054006500630068006E006F006C95
:104E3000006F0067007900200049006E0063002EBB
:104E4000002603480049004400200055005300425A
:104E500000200042006F006F0074006C006F006162
:104E6000006400650072000600FF0901A10119013C
:104E70002940150026FF0075089540810019012979
:104E8000409100C0E00DE00D090E0D0E410EB00A7C
:104E9000200EF66E000EF76E000EF86E030109008C
:104EA000F550FA6F0900F550FB6F03E1FA6701D086
:104EB0003DD00900F550F56F0900F550F66F090077
:104EC000F550F76F09000900F550E96E0900F5503B
:104ED000EA6E090009000900F550F86F0900F55065
:104EE000F96F09000900F6CFFCF3F7CFFDF3F8CF17
:104EF000FEF3F5C3F6FFF6C3F7FFF7C3F8FF0301B0
:104F0000F85302E1F95307E00900F550EE6EF80797
:104F1000F8E2F907F9D7FCC3F6FFFDC3F7FFFEC3BC
:0E4F2000F8FF0301FA07000EFB5BBFD712007B
:024F2E000F0E64
:104F3000C16E938AF19E9398819881AA02D000EF66
:104F400008F00ED8040016D819D8060E0001B45D7A
:104F500005E16D50020B02E124EC00F0F3D71200E2
:104F6000140E6F6E0001B46B0001B56B0001B66BDF
:104F700017EF00F04BEC06F060EF06F00001BB51BC
:104F8000BC1104E1100EBB6F270EBC6FBB07000EF7
:104F9000BC5B060E0001B45D02E28A8E08D00001FF
:104FA000BB51BC1107E18A7E8A50800B02E08C92D3
:064FB00012008C821200C9
:0A4FB600000EF36E00EE00F0040E92
:104FC00001D81200EA6002D0EE6AFCD7F350E96023
:064FD0001200EE6AFCD79E
:0A4FD60013EE00F023EE00F0F86A7D
:104FE000049C48EC07F0F9EC07F097EC07F0FBD7CE
:024FF0001200AD
:024FF2001200AB
:024FF4000000BB
:10500000FFFFFFFFFFFFFFFFFFFFFFFFFFFFFFFFB0
:10501000FFFFFFFFFFFFFFFFFFFFFFFFFFFFFFFFA0
:10502000FFFFFFFFFFFFFFFFFFFFFFFFFFFFFFFF90
:0C503000FFFFFFFFFFFFFFFFFFFFFFFF80
:04503C00FFD7120088
:00000001FF
